{
  "contractName": "ToDo",
  "abi": [
    {
      "constant": true,
      "inputs": [],
      "name": "toDoCount",
      "outputs": [
        {
          "name": "",
          "type": "uint256"
        }
      ],
      "payable": false,
      "stateMutability": "view",
      "type": "function"
    },
    {
      "constant": true,
      "inputs": [
        {
          "name": "",
          "type": "uint256"
        }
      ],
      "name": "tasks",
      "outputs": [
        {
          "name": "id",
          "type": "uint256"
        },
        {
          "name": "content",
          "type": "string"
        },
        {
          "name": "completed",
          "type": "bool"
        }
      ],
      "payable": false,
      "stateMutability": "view",
      "type": "function"
    },
    {
      "inputs": [],
      "payable": false,
      "stateMutability": "nonpayable",
      "type": "constructor"
    },
    {
      "anonymous": false,
      "inputs": [
        {
          "indexed": false,
          "name": "id",
          "type": "uint256"
        },
        {
          "indexed": false,
          "name": "content",
          "type": "string"
        },
        {
          "indexed": false,
          "name": "completed",
          "type": "bool"
        }
      ],
      "name": "CreateNewTaskEvent",
      "type": "event"
    },
    {
      "anonymous": false,
      "inputs": [
        {
          "indexed": false,
          "name": "id",
          "type": "uint256"
        },
        {
          "indexed": false,
          "name": "content",
          "type": "string"
        },
        {
          "indexed": false,
          "name": "completed",
          "type": "bool"
        }
      ],
      "name": "FinishTaskEvent",
      "type": "event"
    },
    {
      "constant": false,
      "inputs": [
        {
          "name": "_content",
          "type": "string"
        }
      ],
      "name": "createNewTask",
      "outputs": [],
      "payable": false,
      "stateMutability": "nonpayable",
      "type": "function"
    },
    {
      "constant": false,
      "inputs": [
        {
          "name": "_id",
          "type": "uint256"
        }
      ],
      "name": "finishTask",
      "outputs": [],
      "payable": false,
      "stateMutability": "nonpayable",
      "type": "function"
    }
  ],
  "bytecode": "0x608060405234801561001057600080fd5b50610667806100206000396000f3fe608060405234801561001057600080fd5b506004361061004c5760003560e01c80630898322014610051578063842178b21461006f57806385edf8741461009d5780638d97767214610158575b600080fd5b610059610211565b6040518082815260200191505060405180910390f35b61009b6004803603602081101561008557600080fd5b8101908080359060200190929190505050610217565b005b610156600480360360208110156100b357600080fd5b81019080803590602001906401000000008111156100d057600080fd5b8201836020820111156100e257600080fd5b8035906020019184600183028401116401000000008311171561010457600080fd5b91908080601f016020809104026020016040519081016040528093929190818152602001838380828437600081840152601f19601f820116905080830192505050505050509192919290505050610374565b005b6101846004803603602081101561016e57600080fd5b81019080803590602001909291905050506104c7565b604051808481526020018060200183151515158152602001828103825284818151815260200191508051906020019080838360005b838110156101d45780820151818401526020810190506101b9565b50505050905090810190601f1680156102015780820380516001836020036101000a031916815260200191505b5094505050505060405180910390f35b60005481565b60008111801561022957506000548111155b61023257600080fd5b6001600082815260200190815260200160002060020160009054906101000a900460ff161561026057600080fd5b600180600083815260200190815260200160002060020160006101000a81548160ff0219169083151502179055507f272614c74badb7283865c54a16a15eacd43c03f50c7b9a5c7e579a1538dc1854816001600084815260200190815260200160002060010160006040518084815260200180602001831515151581526020018281038252848181546001816001161561010002031660029004815260200191508054600181600116156101000203166002900480156103615780601f1061033657610100808354040283529160200191610361565b820191906000526020600020905b81548152906001019060200180831161034457829003601f168201915b505094505050505060405180910390a150565b600081511161038257600080fd5b6000808154809291906001019190505550604051806060016040528060005481526020018281526020016000151581525060016000805481526020019081526020016000206000820151816000015560208201518160010190805190602001906103ed929190610596565b5060408201518160020160006101000a81548160ff0219169083151502179055509050507f5ce849c0f99ff1ed792b546363437351994c42f0c28f42a5d27d0773ad146659600054826000604051808481526020018060200183151515158152602001828103825284818151815260200191508051906020019080838360005b8381101561048857808201518184015260208101905061046d565b50505050905090810190601f1680156104b55780820380516001836020036101000a031916815260200191505b5094505050505060405180910390a150565b6001602052806000526040600020600091509050806000015490806001018054600181600116156101000203166002900480601f0160208091040260200160405190810160405280929190818152602001828054600181600116156101000203166002900480156105795780601f1061054e57610100808354040283529160200191610579565b820191906000526020600020905b81548152906001019060200180831161055c57829003601f168201915b5050505050908060020160009054906101000a900460ff16905083565b828054600181600116156101000203166002900490600052602060002090601f016020900481019282601f106105d757805160ff1916838001178555610605565b82800160010185558215610605579182015b828111156106045782518255916020019190600101906105e9565b5b5090506106129190610616565b5090565b61063891905b8082111561063457600081600090555060010161061c565b5090565b9056fea165627a7a7230582034db5e2b25cc1fb34fd8e2c35af0b2453cf53d2b0cfa05f8a8818580d2fc0ad10029",
  "source": "pragma solidity ^0.5.8;\r\n\r\ncontract ToDo {\r\n\r\n    uint public toDoCount;\r\n\r\n    struct toDoStruct {\r\n        uint id;\r\n        string content;\r\n        bool completed;\r\n    }\r\n\r\n    event CreateNewTaskEvent(\r\n        uint id,\r\n        string content,\r\n        bool completed\r\n    );\r\n\r\n    event FinishTaskEvent(\r\n        uint id,\r\n        string content,\r\n        bool completed\r\n    );\r\n    constructor() public {\r\n        \r\n    }\r\n\r\n    mapping(uint => toDoStruct) public tasks;\r\n\r\n    function createNewTask(string memory _content) public {\r\n        require(bytes(_content).length>0);\r\n         toDoCount++;\r\n        tasks[toDoCount] = toDoStruct(toDoCount, _content, false);\r\n        emit CreateNewTaskEvent(toDoCount, _content, false);\r\n       \r\n    }\r\n\r\n    function finishTask(uint _id) public {\r\n        require(_id>0 && _id<=toDoCount);\r\n        require(!tasks[_id].completed);\r\n        tasks[_id].completed = true;\r\n        emit FinishTaskEvent(_id, tasks[_id].content, false);\r\n    }\r\n\r\n}\r\n",
  "sourcePath": "D:/To-do-dapp/src/contracts/ToDo.sol",
  "compiler": {
    "name": "solc",
    "version": "0.5.8+commit.23d335f2.Emscripten.clang"
  },
  "schemaVersion": "3.0.16",
  "updatedAt": "2019-09-24T15:18:26.250Z",
  "devdoc": {
    "methods": {}
  },
  "userdoc": {
    "methods": {}
  }
}