{
  "contractName": "ToDo",
  "abi": [
    {
      "constant": true,
      "inputs": [
        {
          "name": "",
          "type": "uint256"
        }
      ],
      "name": "tasks",
      "outputs": [
        {
          "name": "id",
          "type": "uint256"
        },
        {
          "name": "content",
          "type": "string"
        },
        {
          "name": "completed",
          "type": "bool"
        }
      ],
      "payable": false,
      "stateMutability": "view",
      "type": "function"
    },
    {
      "anonymous": false,
      "inputs": [
        {
          "indexed": false,
          "name": "id",
          "type": "uint256"
        },
        {
          "indexed": false,
          "name": "content",
          "type": "string"
        },
        {
          "indexed": false,
          "name": "completed",
          "type": "bool"
        }
      ],
      "name": "CreateNewTaskEvent",
      "type": "event"
    },
    {
      "constant": false,
      "inputs": [
        {
          "name": "_content",
          "type": "string"
        }
      ],
      "name": "createNewTask",
      "outputs": [],
      "payable": false,
      "stateMutability": "nonpayable",
      "type": "function"
    }
  ],
  "bytecode": "0x608060405234801561001057600080fd5b50610494806100206000396000f3fe608060405234801561001057600080fd5b50600436106100365760003560e01c806385edf8741461003b5780638d977672146100f6575b600080fd5b6100f46004803603602081101561005157600080fd5b810190808035906020019064010000000081111561006e57600080fd5b82018360208201111561008057600080fd5b803590602001918460018302840111640100000000831117156100a257600080fd5b91908080601f016020809104026020016040519081016040528093929190818152602001838380828437600081840152601f19601f8201169050808301925050505050505091929192905050506101af565b005b6101226004803603602081101561010c57600080fd5b81019080803590602001909291905050506102f4565b604051808481526020018060200183151515158152602001828103825284818151815260200191508051906020019080838360005b83811015610172578082015181840152602081019050610157565b50505050905090810190601f16801561019f5780820380516001836020036101000a031916815260200191505b5094505050505060405180910390f35b60008081548092919060010191905055506040518060600160405280600054815260200182815260200160001515815250600160008054815260200190815260200160002060008201518160000155602082015181600101908051906020019061021a9291906103c3565b5060408201518160020160006101000a81548160ff0219169083151502179055509050507f5ce849c0f99ff1ed792b546363437351994c42f0c28f42a5d27d0773ad146659600054826000604051808481526020018060200183151515158152602001828103825284818151815260200191508051906020019080838360005b838110156102b557808201518184015260208101905061029a565b50505050905090810190601f1680156102e25780820380516001836020036101000a031916815260200191505b5094505050505060405180910390a150565b6001602052806000526040600020600091509050806000015490806001018054600181600116156101000203166002900480601f0160208091040260200160405190810160405280929190818152602001828054600181600116156101000203166002900480156103a65780601f1061037b576101008083540402835291602001916103a6565b820191906000526020600020905b81548152906001019060200180831161038957829003601f168201915b5050505050908060020160009054906101000a900460ff16905083565b828054600181600116156101000203166002900490600052602060002090601f016020900481019282601f1061040457805160ff1916838001178555610432565b82800160010185558215610432579182015b82811115610431578251825591602001919060010190610416565b5b50905061043f9190610443565b5090565b61046591905b80821115610461576000816000905550600101610449565b5090565b9056fea165627a7a723058202b54d13db312c025566a0c02a6a9c6f033975a11b01151e77fc3eb065a8b17740029",
  "source": "pragma solidity ^0.5.8;\r\n\r\ncontract ToDo {\r\n\r\n    uint toDoCount;\r\n\r\n    struct toDoStruct {\r\n        uint id;\r\n        string content;\r\n        bool completed;\r\n    }\r\n\r\n    event CreateNewTaskEvent(\r\n        uint id,\r\n        string content,\r\n        bool completed\r\n    );\r\n\r\n    mapping(uint => toDoStruct) public tasks;\r\n\r\n    function createNewTask(string memory _content) public {\r\n        toDoCount++;\r\n        tasks[toDoCount] = toDoStruct(toDoCount, _content, false);\r\n        emit CreateNewTaskEvent(toDoCount, _content, false);\r\n    }\r\n\r\n\r\n\r\n}\r\n",
  "sourcePath": "E:/starter_kit/src/contracts/ToDo.sol",
  "compiler": {
    "name": "solc",
    "version": "0.5.8+commit.23d335f2.Emscripten.clang"
  },
  "schemaVersion": "3.0.13",
  "updatedAt": "2019-09-23T21:06:03.565Z",
  "devdoc": {
    "methods": {}
  },
  "userdoc": {
    "methods": {}
  }
}